{
  "contractName": "TasksContract",
  "abi": [
    {
      "anonymous": false,
      "inputs": [
        {
          "indexed": false,
          "internalType": "uint256",
          "name": "id",
          "type": "uint256"
        },
        {
          "indexed": false,
          "internalType": "string",
          "name": "title",
          "type": "string"
        },
        {
          "indexed": false,
          "internalType": "string",
          "name": "description",
          "type": "string"
        },
        {
          "indexed": false,
          "internalType": "bool",
          "name": "done",
          "type": "bool"
        },
        {
          "indexed": false,
          "internalType": "uint256",
          "name": "createdAt",
          "type": "uint256"
        }
      ],
      "name": "TaskCreated",
      "type": "event"
    },
    {
      "anonymous": false,
      "inputs": [
        {
          "indexed": false,
          "internalType": "uint256",
          "name": "id",
          "type": "uint256"
        },
        {
          "indexed": false,
          "internalType": "bool",
          "name": "done",
          "type": "bool"
        }
      ],
      "name": "TaskToggled",
      "type": "event"
    },
    {
      "inputs": [],
      "name": "taskCounter",
      "outputs": [
        {
          "internalType": "uint256",
          "name": "",
          "type": "uint256"
        }
      ],
      "stateMutability": "view",
      "type": "function",
      "constant": true
    },
    {
      "inputs": [
        {
          "internalType": "uint256",
          "name": "",
          "type": "uint256"
        }
      ],
      "name": "tasks",
      "outputs": [
        {
          "internalType": "uint256",
          "name": "id",
          "type": "uint256"
        },
        {
          "internalType": "string",
          "name": "title",
          "type": "string"
        },
        {
          "internalType": "string",
          "name": "description",
          "type": "string"
        },
        {
          "internalType": "bool",
          "name": "done",
          "type": "bool"
        },
        {
          "internalType": "uint256",
          "name": "createdAt",
          "type": "uint256"
        }
      ],
      "stateMutability": "view",
      "type": "function",
      "constant": true
    },
    {
      "inputs": [
        {
          "internalType": "string",
          "name": "_title",
          "type": "string"
        },
        {
          "internalType": "string",
          "name": "_description",
          "type": "string"
        }
      ],
      "name": "createTask",
      "outputs": [],
      "stateMutability": "nonpayable",
      "type": "function"
    },
    {
      "inputs": [
        {
          "internalType": "uint256",
          "name": "_id",
          "type": "uint256"
        }
      ],
      "name": "toggleDone",
      "outputs": [],
      "stateMutability": "nonpayable",
      "type": "function"
    }
  ],
  "bytecode": "0x60806040526000805534801561001457600080fd5b50610931806100246000396000f3fe608060405234801561001057600080fd5b506004361061004c5760003560e01c8063292a458514610051578063586717301461006d5780638d9776721461008b578063d81ef739146100bf575b600080fd5b61006b6004803603810190610066919061051b565b6100db565b005b6100756101e9565b6040516100829190610617565b60405180910390f35b6100a560048036038101906100a09190610593565b6101ef565b6040516100b695949392919061065b565b60405180910390f35b6100d960048036038101906100d49190610593565b610342565b005b6000808154809291906100ed906107e9565b91905055506040518060a0016040528060005481526020018381526020018281526020016000151581526020014281525060016000805481526020019081526020016000206000820151816000015560208201518160010190805190602001906101589291906103f3565b5060408201518160020190805190602001906101759291906103f3565b5060608201518160030160006101000a81548160ff021916908315150217905550608082015181600401559050507f6549102bed7d1bb5ec529ee14e2ca60ffc1f47f66d4cc6ca713220613cc64c2560005483836000426040516101dd95949392919061065b565b60405180910390a15050565b60005481565b600160205280600052604060002060009150905080600001549080600101805461021890610786565b80601f016020809104026020016040519081016040528092919081815260200182805461024490610786565b80156102915780601f1061026657610100808354040283529160200191610291565b820191906000526020600020905b81548152906001019060200180831161027457829003601f168201915b5050505050908060020180546102a690610786565b80601f01602080910402602001604051908101604052809291908181526020018280546102d290610786565b801561031f5780601f106102f45761010080835404028352916020019161031f565b820191906000526020600020905b81548152906001019060200180831161030257829003601f168201915b5050505050908060030160009054906101000a900460ff16908060040154905085565b6001600082815260200190815260200160002060030160009054906101000a900460ff16156001600083815260200190815260200160002060030160006101000a81548160ff0219169083151502179055507fe668c7a227d9261aa1f964bf5a852ab642446a7af6c29405caf8d0e9ce2c11f0816001600084815260200190815260200160002060030160009054906101000a900460ff166040516103e8929190610632565b60405180910390a150565b8280546103ff90610786565b90600052602060002090601f0160209004810192826104215760008555610468565b82601f1061043a57805160ff1916838001178555610468565b82800160010185558215610468579182015b8281111561046757825182559160200191906001019061044c565b5b5090506104759190610479565b5090565b5b8082111561049257600081600090555060010161047a565b5090565b60006104a96104a4846106e1565b6106bc565b9050828152602081018484840111156104c5576104c46108c4565b5b6104d0848285610744565b509392505050565b600082601f8301126104ed576104ec6108bf565b5b81356104fd848260208601610496565b91505092915050565b600081359050610515816108e4565b92915050565b60008060408385031215610532576105316108ce565b5b600083013567ffffffffffffffff8111156105505761054f6108c9565b5b61055c858286016104d8565b925050602083013567ffffffffffffffff81111561057d5761057c6108c9565b5b610589858286016104d8565b9150509250929050565b6000602082840312156105a9576105a86108ce565b5b60006105b784828501610506565b91505092915050565b6105c98161072e565b82525050565b60006105da82610712565b6105e4818561071d565b93506105f4818560208601610753565b6105fd816108d3565b840191505092915050565b6106118161073a565b82525050565b600060208201905061062c6000830184610608565b92915050565b60006040820190506106476000830185610608565b61065460208301846105c0565b9392505050565b600060a0820190506106706000830188610608565b818103602083015261068281876105cf565b9050818103604083015261069681866105cf565b90506106a560608301856105c0565b6106b26080830184610608565b9695505050505050565b60006106c66106d7565b90506106d282826107b8565b919050565b6000604051905090565b600067ffffffffffffffff8211156106fc576106fb610890565b5b610705826108d3565b9050602081019050919050565b600081519050919050565b600082825260208201905092915050565b60008115159050919050565b6000819050919050565b82818337600083830152505050565b60005b83811015610771578082015181840152602081019050610756565b83811115610780576000848401525b50505050565b6000600282049050600182168061079e57607f821691505b602082108114156107b2576107b1610861565b5b50919050565b6107c1826108d3565b810181811067ffffffffffffffff821117156107e0576107df610890565b5b80604052505050565b60006107f48261073a565b91507fffffffffffffffffffffffffffffffffffffffffffffffffffffffffffffffff82141561082757610826610832565b5b600182019050919050565b7f4e487b7100000000000000000000000000000000000000000000000000000000600052601160045260246000fd5b7f4e487b7100000000000000000000000000000000000000000000000000000000600052602260045260246000fd5b7f4e487b7100000000000000000000000000000000000000000000000000000000600052604160045260246000fd5b600080fd5b600080fd5b600080fd5b600080fd5b6000601f19601f8301169050919050565b6108ed8161073a565b81146108f857600080fd5b5056fea2646970667358221220b747f4b72051690bc6799fd93ece64411bdac104e38695846170e1be3370765b64736f6c63430008060033",
  "immutableReferences": {},
  "source": "// SPDX-License-Identifier: MIT\npragma solidity ^0.8.6;\n\ncontract TasksContract {\n    uint256 public taskCounter = 0;\n\n    struct Task {\n        uint256 id;\n        string title;\n        string description;\n        bool done;\n        uint256 createdAt;\n    }\n\n    event TaskCreated(\n        uint256 id,\n        string title,\n        string description,\n        bool done,\n        uint256 createdAt\n    );\n\n    event TaskToggled(\n        uint256 id,\n        bool done\n    );\n\n    mapping(uint256 => Task) public tasks;\n\n    function createTask(string memory _title, string memory _description)\n        public\n    {\n        taskCounter++;\n\n        tasks[taskCounter] = Task(\n            taskCounter,\n            _title,\n            _description,\n            false,\n            block.timestamp\n        );\n\n        emit TaskCreated(\n            taskCounter, _title, _description, false, block.timestamp\n        );\n        //para que guarda el id dentro de cada task?\n    }\n\n    function toggleDone(uint256 _id) public {\n        tasks[_id].done = !tasks[_id].done;\n        emit TaskToggled(_id, tasks[_id].done);\n    }\n}\n",
  "sourcePath": "/Users/Joa/Desktop/Dapps/EtherTask/truffle/contracts/TasksContract.sol",
  "compiler": {
    "name": "solc",
    "version": "0.8.6+commit.11564f7e.Emscripten.clang"
  },
  "schemaVersion": "3.4.3",
  "updatedAt": "2021-11-15T15:16:51.527Z",
  "networkType": "ethereum",
  "devdoc": {
    "kind": "dev",
    "methods": {},
    "version": 1
  },
  "userdoc": {
    "kind": "user",
    "methods": {},
    "version": 1
  }
}